{
    "abi": [
        {
            "inputs": [
                {
                    "internalType": "address",
                    "name": "owner",
                    "type": "address"
                },
                {
                    "internalType": "address",
                    "name": "_factory",
                    "type": "address"
                },
                {
                    "internalType": "address",
                    "name": "_ceth",
                    "type": "address"
                },
                {
                    "internalType": "address",
                    "name": "_weth",
                    "type": "address"
                },
                {
                    "internalType": "address",
                    "name": "_liquidator",
                    "type": "address"
                }
            ],
            "stateMutability": "nonpayable",
            "type": "constructor"
        },
        {
            "inputs": [],
            "name": "_owner",
            "outputs": [
                {
                    "internalType": "address",
                    "name": "",
                    "type": "address"
                }
            ],
            "stateMutability": "view",
            "type": "function"
        },
        {
            "inputs": [
                {
                    "internalType": "address",
                    "name": "executor",
                    "type": "address"
                }
            ],
            "name": "addExecutor",
            "outputs": [],
            "stateMutability": "nonpayable",
            "type": "function"
        },
        {
            "inputs": [
                {
                    "internalType": "address",
                    "name": "newOwner",
                    "type": "address"
                }
            ],
            "name": "changeOwner",
            "outputs": [],
            "stateMutability": "nonpayable",
            "type": "function"
        },
        {
            "inputs": [
                {
                    "internalType": "address[]",
                    "name": "tokens",
                    "type": "address[]"
                },
                {
                    "internalType": "address",
                    "name": "recipient",
                    "type": "address"
                }
            ],
            "name": "collect",
            "outputs": [],
            "stateMutability": "nonpayable",
            "type": "function"
        },
        {
            "inputs": [
                {
                    "internalType": "address",
                    "name": "token",
                    "type": "address"
                },
                {
                    "internalType": "address",
                    "name": "recipient",
                    "type": "address"
                }
            ],
            "name": "collect",
            "outputs": [],
            "stateMutability": "nonpayable",
            "type": "function"
        },
        {
            "inputs": [
                {
                    "internalType": "address",
                    "name": "",
                    "type": "address"
                }
            ],
            "name": "executors",
            "outputs": [
                {
                    "internalType": "bool",
                    "name": "",
                    "type": "bool"
                }
            ],
            "stateMutability": "view",
            "type": "function"
        },
        {
            "inputs": [],
            "name": "liquidator",
            "outputs": [
                {
                    "internalType": "address",
                    "name": "",
                    "type": "address"
                }
            ],
            "stateMutability": "view",
            "type": "function"
        },
        {
            "inputs": [
                {
                    "internalType": "address",
                    "name": "",
                    "type": "address"
                },
                {
                    "internalType": "uint256",
                    "name": "amount0",
                    "type": "uint256"
                },
                {
                    "internalType": "uint256",
                    "name": "amount1",
                    "type": "uint256"
                },
                {
                    "internalType": "bytes",
                    "name": "data",
                    "type": "bytes"
                }
            ],
            "name": "pancakeCall",
            "outputs": [],
            "stateMutability": "nonpayable",
            "type": "function"
        },
        {
            "inputs": [
                {
                    "internalType": "address",
                    "name": "",
                    "type": "address"
                }
            ],
            "name": "recipients",
            "outputs": [
                {
                    "internalType": "bool",
                    "name": "",
                    "type": "bool"
                }
            ],
            "stateMutability": "view",
            "type": "function"
        },
        {
            "inputs": [
                {
                    "internalType": "address",
                    "name": "executor",
                    "type": "address"
                }
            ],
            "name": "removeExecutor",
            "outputs": [],
            "stateMutability": "nonpayable",
            "type": "function"
        },
        {
            "inputs": [
                {
                    "internalType": "bool",
                    "name": "zeroForOne",
                    "type": "bool"
                },
                {
                    "internalType": "uint256",
                    "name": "amount",
                    "type": "uint256"
                },
                {
                    "internalType": "address",
                    "name": "pair",
                    "type": "address"
                },
                {
                    "internalType": "address",
                    "name": "token0",
                    "type": "address"
                },
                {
                    "internalType": "address",
                    "name": "token1",
                    "type": "address"
                },
                {
                    "internalType": "address",
                    "name": "borrower",
                    "type": "address"
                },
                {
                    "internalType": "address",
                    "name": "repayCToken",
                    "type": "address"
                },
                {
                    "internalType": "address",
                    "name": "seizeCToken",
                    "type": "address"
                }
            ],
            "name": "swap",
            "outputs": [],
            "stateMutability": "nonpayable",
            "type": "function"
        },
        {
            "inputs": [
                {
                    "internalType": "address",
                    "name": "token",
                    "type": "address"
                },
                {
                    "internalType": "address",
                    "name": "to",
                    "type": "address"
                },
                {
                    "internalType": "uint256",
                    "name": "amount",
                    "type": "uint256"
                }
            ],
            "name": "withdraw",
            "outputs": [],
            "stateMutability": "nonpayable",
            "type": "function"
        },
        {
            "inputs": [
                {
                    "internalType": "address[]",
                    "name": "token",
                    "type": "address[]"
                },
                {
                    "internalType": "address",
                    "name": "to",
                    "type": "address"
                }
            ],
            "name": "withdrawAll",
            "outputs": [],
            "stateMutability": "nonpayable",
            "type": "function"
        },
        {
            "inputs": [
                {
                    "internalType": "address",
                    "name": "to",
                    "type": "address"
                },
                {
                    "internalType": "uint256",
                    "name": "amount",
                    "type": "uint256"
                }
            ],
            "name": "withdrawETH",
            "outputs": [],
            "stateMutability": "nonpayable",
            "type": "function"
        },
        {
            "stateMutability": "payable",
            "type": "receive"
        }
    ],
    "bytecode": {
        "object": "0x6101006040523480156200001257600080fd5b5060405162002a1e38038062002a1e833981016040819052620000359162000089565b600080546001600160a01b0319166001600160a01b0396871617905592841660a05290831660c052821660e05216608052620000f9565b80516001600160a01b03811681146200008457600080fd5b919050565b600080600080600060a08688031215620000a257600080fd5b620000ad866200006c565b9450620000bd602087016200006c565b9350620000cd604087016200006c565b9250620000dd606087016200006c565b9150620000ed608087016200006c565b90509295509295909350565b60805160a05160c05160e05161289762000187600039600081816110f401528181611689015281816119380152611ecd0152600081816110b5015281816115b9015281816118f90152611dfd01526000610faf0152600081816101810152818161115c01528181611447015281816114db015281816119a001528181611c8b0152611d1f01526128976000f3fe6080604052600436106100e15760003560e01c8063848008121161007f578063a6f9dae111610059578063a6f9dae114610280578063b2bdfa7b146102a0578063d9caed12146102c0578063eb820312146102e057600080fd5b806384800812146102005780639ac2a01114610220578063a12ef25e1461026057600080fd5b8063397a079b116100bb578063397a079b1461014f5780634046ebae1461016f57806342b1689d146101c05780634782f779146101e057600080fd5b806318de0524146100ed5780631f5a0bbe1461010f578063247884291461012f57600080fd5b366100e857005b600080fd5b3480156100f957600080fd5b5061010d610108366004612171565b610310565b005b34801561011b57600080fd5b5061010d61012a366004612211565b61066e565b34801561013b57600080fd5b5061010d61014a366004612211565b6106bf565b34801561015b57600080fd5b5061010d61016a366004612235565b61070a565b34801561017b57600080fd5b506101a37f000000000000000000000000000000000000000000000000000000000000000081565b6040516001600160a01b0390911681526020015b60405180910390f35b3480156101cc57600080fd5b5061010d6101db3660046122d1565b6108e8565b3480156101ec57600080fd5b5061010d6101fb3660046123a8565b610a60565b34801561020c57600080fd5b5061010d61021b3660046123d4565b610b9a565b34801561022c57600080fd5b5061025061023b366004612211565b60016020526000908152604090205460ff1681565b60405190151581526020016101b7565b34801561026c57600080fd5b5061010d61027b36600461246a565b610bad565b34801561028c57600080fd5b5061010d61029b366004612211565b610cc5565b3480156102ac57600080fd5b506000546101a3906001600160a01b031681565b3480156102cc57600080fd5b5061010d6102db3660046124a3565b610d24565b3480156102ec57600080fd5b506102506102fb366004612211565b60026020526000908152604090205460ff1681565b3360009081526001602052604090205460ff168061033857506000546001600160a01b031633145b61035d5760405162461bcd60e51b8152600401610354906124e4565b60405180910390fd5b6040516395dd919360e01b81526001600160a01b038481166004830152606491908416906395dd919390602401602060405180830381865afa1580156103a7573d6000803e3d6000fd5b505050506040513d601f19601f820116820180604052508101906103cb919061250a565b6103d6906062612539565b6103e09190612556565b87101561041c5760405162461bcd60e51b815260206004820152600a60248201526929ba30ba32a2b93937b960b11b6044820152606401610354565b8715610545576000806000886001600160a01b0316630902f1ac6040518163ffffffff1660e01b8152600401606060405180830381865afa158015610465573d6000803e3d6000fd5b505050506040513d601f19601f82011682018060405250810190610489919061258f565b5090925090506104a88a6001600160701b038085169084166019610efd565b9250505060008686868686866040516020016104c9969594939291906125d4565b60408051601f198184030181529082905263022c0d9f60e01b825291506001600160a01b0389169063022c0d9f9061050c906000908d903090879060040161265f565b600060405180830381600087803b15801561052657600080fd5b505af115801561053a573d6000803e3d6000fd5b505050505050610664565b6000806000886001600160a01b0316630902f1ac6040518163ffffffff1660e01b8152600401606060405180830381865afa158015610588573d6000803e3d6000fd5b505050506040513d601f19601f820116820180604052508101906105ac919061258f565b5090925090506105cb8a6001600160701b038084169085166019610efd565b9250505060008686868686866040516020016105ec969594939291906125d4565b60408051601f198184030181529082905263022c0d9f60e01b825291506001600160a01b0389169063022c0d9f9061062f908c906000903090879060040161265f565b600060405180830381600087803b15801561064957600080fd5b505af115801561065d573d6000803e3d6000fd5b5050505050505b5050505050505050565b6000546001600160a01b031633146106985760405162461bcd60e51b815260040161035490612696565b6001600160a01b03166000908152600160208190526040909120805460ff19169091179055565b6000546001600160a01b031633146106e95760405162461bcd60e51b815260040161035490612696565b6001600160a01b03166000908152600160205260409020805460ff19169055565b3360009081526001602052604090205460ff168061073257506000546001600160a01b031633145b61074e5760405162461bcd60e51b8152600401610354906124e4565b6001600160a01b03811660009081526002602052604090205460ff166107865760405162461bcd60e51b8152600401610354906126b9565b60005b828110156108d75760008484838181106107a5576107a56126f0565b90506020020160208101906107ba9190612211565b6040516370a0823160e01b81523060048201526001600160a01b0391909116906370a0823190602401602060405180830381865afa158015610800573d6000803e3d6000fd5b505050506040513d601f19601f82011682018060405250810190610824919061250a565b9050848483818110610838576108386126f0565b905060200201602081019061084d9190612211565b60405163a9059cbb60e01b81526001600160a01b03858116600483015260248201849052919091169063a9059cbb906044016020604051808303816000875af115801561089e573d6000803e3d6000fd5b505050506040513d601f19601f820116820180604052508101906108c29190612706565b505080806108cf90612723565b915050610789565b6108e2826000610a60565b50505050565b6000546001600160a01b031633146109125760405162461bcd60e51b815260040161035490612696565b60005b8251811015610a5b57828181518110610930576109306126f0565b60200260200101516001600160a01b031663a9059cbb83600186858151811061095b5761095b6126f0565b60209081029190910101516040516370a0823160e01b81523060048201526001600160a01b03909116906370a0823190602401602060405180830381865afa1580156109ab573d6000803e3d6000fd5b505050506040513d601f19601f820116820180604052508101906109cf919061250a565b6109d9919061273c565b6040516001600160e01b031960e085901b1681526001600160a01b03909216600483015260248201526044016020604051808303816000875af1158015610a24573d6000803e3d6000fd5b505050506040513d601f19601f82011682018060405250810190610a489190612706565b5080610a5381612723565b915050610915565b505050565b3360009081526001602052604090205460ff1680610a8857506000546001600160a01b031633145b610aa45760405162461bcd60e51b8152600401610354906124e4565b6001600160a01b03821660009081526002602052604090205460ff16610adc5760405162461bcd60e51b8152600401610354906126b9565b476000829003610b1c576040516001600160a01b0384169082156108fc029083906000818181858888f193505050501580156108e2573d6000803e3d6000fd5b80821115610b645760405162461bcd60e51b8152602060048201526015602482015274616d6f756e74206578636565642062616c616e636560581b6044820152606401610354565b6040516001600160a01b0384169083156108fc029084906000818181858888f193505050501580156108e2573d6000803e3d6000fd5b610ba684848484610f62565b5050505050565b6000546001600160a01b03163314610bd75760405162461bcd60e51b815260040161035490612696565b6040516370a0823160e01b81523060048201526001600160a01b0383169063a9059cbb90839060019084906370a0823190602401602060405180830381865afa158015610c28573d6000803e3d6000fd5b505050506040513d601f19601f82011682018060405250810190610c4c919061250a565b610c56919061273c565b6040516001600160e01b031960e085901b1681526001600160a01b03909216600483015260248201526044016020604051808303816000875af1158015610ca1573d6000803e3d6000fd5b505050506040513d601f19601f82011682018060405250810190610a5b9190612706565b6000546001600160a01b03163314610cef5760405162461bcd60e51b815260040161035490612696565b6001600160a01b038116610d0257600080fd5b600080546001600160a01b0319166001600160a01b0392909216919091179055565b3360009081526001602052604090205460ff1680610d4c57506000546001600160a01b031633145b610d685760405162461bcd60e51b8152600401610354906124e4565b6001600160a01b03821660009081526002602052604090205460ff16610da05760405162461bcd60e51b8152600401610354906126b9565b80600003610e8a576040516370a0823160e01b81523060048201526000906001600160a01b038516906370a0823190602401602060405180830381865afa158015610def573d6000803e3d6000fd5b505050506040513d601f19601f82011682018060405250810190610e13919061250a565b60405163a9059cbb60e01b81526001600160a01b038581166004830152602482018390529192509085169063a9059cbb906044016020604051808303816000875af1158015610e66573d6000803e3d6000fd5b505050506040513d601f19601f82011682018060405250810190610ba69190612706565b60405163a9059cbb60e01b81526001600160a01b0383811660048301526024820183905284169063a9059cbb906044016020604051808303816000875af1158015610ed9573d6000803e3d6000fd5b505050506040513d601f19601f820116820180604052508101906108e29190612706565b600080610f0a8686612539565b610f1690612710612539565b90506000610f268461271061274f565b63ffffffff16610f36888761273c565b610f409190612539565b9050610f4c8183612556565b610f57906001612773565b979650505050505050565b60008080808080610f7587890189612786565b6040516bffffffffffffffffffffffff19606088811b8216602084015287901b166034820152959b509399509197509550935091506000907f00000000000000000000000000000000000000000000000000000000000000009060480160408051601f1981840301815290829052805160209182012061104c939290917efb7f630766e6a796048ea87d01acd3068e8ff67d078148a3fa3f4a84f69bd591016001600160f81b0319815260609390931b6bffffffffffffffffffffffff191660018401526015830191909152603582015260550190565b60408051601f1981840301815291905280516020909101209050336001600160a01b038216146110a25760405162461bcd60e51b81526020600482015260016024820152604360f81b6044820152606401610354565b8a6000036118ee57896001600160a01b037f000000000000000000000000000000000000000000000000000000000000000081169086160361143057604051632e1a7d4d60e01b8152600481018290527f00000000000000000000000000000000000000000000000000000000000000006001600160a01b031690632e1a7d4d90602401600060405180830381600087803b15801561114057600080fd5b505af1158015611154573d6000803e3d6000fd5b5050505060007f00000000000000000000000000000000000000000000000000000000000000006001600160a01b0316828789858960405160240161119c94939291906127ff565b60408051601f198184030181529181526020820180516001600160e01b0316630c9fae0f60e31b179052516111d1919061282a565b60006040518083038185875af1925050503d806000811461120e576040519150601f19603f3d011682016040523d82523d6000602084013e611213565b606091505b50509050806112485760405162461bcd60e51b81526020600482015260016024820152601360fa1b6044820152606401610354565b6040516370a0823160e01b81523060048201526000906001600160a01b038b16906370a0823190602401602060405180830381865afa15801561128f573d6000803e3d6000fd5b505050506040513d601f19601f820116820180604052508101906112b3919061250a565b604051633af9e66960e01b81523060048201529091506000906001600160a01b03881690633af9e669906024016020604051808303816000875af11580156112ff573d6000803e3d6000fd5b505050506040513d601f19601f82011682018060405250810190611323919061250a565b60405163852a12e360e01b8152600481018290529091506001600160a01b0388169063852a12e3906024016020604051808303816000875af115801561136d573d6000803e3d6000fd5b505050506040513d601f19601f82011682018060405250810190611391919061250a565b506040516370a0823160e01b81523060048201526000906001600160a01b038d16906370a0823190602401602060405180830381865afa1580156113d9573d6000803e3d6000fd5b505050506040513d601f19601f820116820180604052508101906113fd919061250a565b90508661140a848361273c565b116114275760405162461bcd60e51b815260040161035490612846565b50505050611876565b60405163095ea7b360e01b81526001600160a01b037f0000000000000000000000000000000000000000000000000000000000000000811660048301526024820183905288169063095ea7b3906044016020604051808303816000875af115801561149f573d6000803e3d6000fd5b505050506040513d601f19601f820116820180604052508101906114c39190612706565b50604051630c9fae0f60e31b81526001600160a01b037f000000000000000000000000000000000000000000000000000000000000000016906364fd7078906115169088908a9086908a906004016127ff565b600060405180830381600087803b15801561153057600080fd5b505af1158015611544573d6000803e3d6000fd5b5050604051633af9e66960e01b8152306004820152600092506001600160a01b0387169150633af9e669906024016020604051808303816000875af1158015611591573d6000803e3d6000fd5b505050506040513d601f19601f820116820180604052508101906115b5919061250a565b90507f00000000000000000000000000000000000000000000000000000000000000006001600160a01b0316856001600160a01b0316036117025760405163852a12e360e01b81526004810182905247906001600160a01b0387169063852a12e3906024016020604051808303816000875af1158015611639573d6000803e3d6000fd5b505050506040513d601f19601f8201168201806040525081019061165d919061250a565b50478561166a838361273c565b116116875760405162461bcd60e51b815260040161035490612846565b7f00000000000000000000000000000000000000000000000000000000000000006001600160a01b031663d0e30db0826040518263ffffffff1660e01b81526004016000604051808303818588803b1580156116e257600080fd5b505af11580156116f6573d6000803e3d6000fd5b50505050505050611874565b6040516370a0823160e01b81523060048201526000906001600160a01b038b16906370a0823190602401602060405180830381865afa158015611749573d6000803e3d6000fd5b505050506040513d601f19601f8201168201806040525081019061176d919061250a565b60405163852a12e360e01b8152600481018490529091506001600160a01b0387169063852a12e3906024016020604051808303816000875af11580156117b7573d6000803e3d6000fd5b505050506040513d601f19601f820116820180604052508101906117db919061250a565b506040516370a0823160e01b81523060048201526000906001600160a01b038c16906370a0823190602401602060405180830381865afa158015611823573d6000803e3d6000fd5b505050506040513d601f19601f82011682018060405250810190611847919061250a565b905085611854838361273c565b116118715760405162461bcd60e51b815260040161035490612846565b50505b505b60405163a9059cbb60e01b8152336004820152602481018490526001600160a01b0389169063a9059cbb906044016020604051808303816000875af11580156118c3573d6000803e3d6000fd5b505050506040513d601f19601f820116820180604052508101906118e79190612706565b505061212e565b8a6001600160a01b037f0000000000000000000000000000000000000000000000000000000000000000811690861603611c7457604051632e1a7d4d60e01b8152600481018290527f00000000000000000000000000000000000000000000000000000000000000006001600160a01b031690632e1a7d4d90602401600060405180830381600087803b15801561198457600080fd5b505af1158015611998573d6000803e3d6000fd5b5050505060007f00000000000000000000000000000000000000000000000000000000000000006001600160a01b031682878985896040516024016119e094939291906127ff565b60408051601f198184030181529181526020820180516001600160e01b0316630c9fae0f60e31b17905251611a15919061282a565b60006040518083038185875af1925050503d8060008114611a52576040519150601f19603f3d011682016040523d82523d6000602084013e611a57565b606091505b5050905080611a8c5760405162461bcd60e51b81526020600482015260016024820152601360fa1b6044820152606401610354565b6040516370a0823160e01b81523060048201526000906001600160a01b038a16906370a0823190602401602060405180830381865afa158015611ad3573d6000803e3d6000fd5b505050506040513d601f19601f82011682018060405250810190611af7919061250a565b604051633af9e66960e01b81523060048201529091506000906001600160a01b03881690633af9e669906024016020604051808303816000875af1158015611b43573d6000803e3d6000fd5b505050506040513d601f19601f82011682018060405250810190611b67919061250a565b60405163852a12e360e01b8152600481018290529091506001600160a01b0388169063852a12e3906024016020604051808303816000875af1158015611bb1573d6000803e3d6000fd5b505050506040513d601f19601f82011682018060405250810190611bd5919061250a565b506040516370a0823160e01b81523060048201526000906001600160a01b038c16906370a0823190602401602060405180830381865afa158015611c1d573d6000803e3d6000fd5b505050506040513d601f19601f82011682018060405250810190611c41919061250a565b905086611c4e848361273c565b11611c6b5760405162461bcd60e51b815260040161035490612846565b505050506120ba565b60405163095ea7b360e01b81526001600160a01b037f0000000000000000000000000000000000000000000000000000000000000000811660048301526024820183905289169063095ea7b3906044016020604051808303816000875af1158015611ce3573d6000803e3d6000fd5b505050506040513d601f19601f82011682018060405250810190611d079190612706565b50604051630c9fae0f60e31b81526001600160a01b037f000000000000000000000000000000000000000000000000000000000000000016906364fd707890611d5a9088908a9086908a906004016127ff565b600060405180830381600087803b158015611d7457600080fd5b505af1158015611d88573d6000803e3d6000fd5b5050604051633af9e66960e01b8152306004820152600092506001600160a01b0387169150633af9e669906024016020604051808303816000875af1158015611dd5573d6000803e3d6000fd5b505050506040513d601f19601f82011682018060405250810190611df9919061250a565b90507f00000000000000000000000000000000000000000000000000000000000000006001600160a01b0316856001600160a01b031603611f465760405163852a12e360e01b81526004810182905247906001600160a01b0387169063852a12e3906024016020604051808303816000875af1158015611e7d573d6000803e3d6000fd5b505050506040513d601f19601f82011682018060405250810190611ea1919061250a565b504785611eae838361273c565b11611ecb5760405162461bcd60e51b815260040161035490612846565b7f00000000000000000000000000000000000000000000000000000000000000006001600160a01b031663d0e30db0826040518263ffffffff1660e01b81526004016000604051808303818588803b158015611f2657600080fd5b505af1158015611f3a573d6000803e3d6000fd5b505050505050506120b8565b6040516370a0823160e01b81523060048201526000906001600160a01b038a16906370a0823190602401602060405180830381865afa158015611f8d573d6000803e3d6000fd5b505050506040513d601f19601f82011682018060405250810190611fb1919061250a565b60405163852a12e360e01b8152600481018490529091506001600160a01b0387169063852a12e3906024016020604051808303816000875af1158015611ffb573d6000803e3d6000fd5b505050506040513d601f19601f8201168201806040525081019061201f919061250a565b506040516370a0823160e01b81523060048201526000906001600160a01b038b16906370a0823190602401602060405180830381865afa158015612067573d6000803e3d6000fd5b505050506040513d601f19601f8201168201806040525081019061208b919061250a565b905085612098838361273c565b116120b55760405162461bcd60e51b815260040161035490612846565b50505b505b60405163a9059cbb60e01b8152336004820152602481018490526001600160a01b0388169063a9059cbb906044016020604051808303816000875af1158015612107573d6000803e3d6000fd5b505050506040513d601f19601f8201168201806040525081019061212b9190612706565b50505b5050505050505050505050565b801515811461214957600080fd5b50565b6001600160a01b038116811461214957600080fd5b803561216c8161214c565b919050565b600080600080600080600080610100898b03121561218e57600080fd5b88356121998161213b565b97506020890135965060408901356121b08161214c565b955060608901356121c08161214c565b945060808901356121d08161214c565b935060a08901356121e08161214c565b925060c08901356121f08161214c565b915060e08901356122008161214c565b809150509295985092959890939650565b60006020828403121561222357600080fd5b813561222e8161214c565b9392505050565b60008060006040848603121561224a57600080fd5b833567ffffffffffffffff8082111561226257600080fd5b818601915086601f83011261227657600080fd5b81358181111561228557600080fd5b8760208260051b850101111561229a57600080fd5b602092830195509350508401356122b08161214c565b809150509250925092565b634e487b7160e01b600052604160045260246000fd5b600080604083850312156122e457600080fd5b823567ffffffffffffffff808211156122fc57600080fd5b818501915085601f83011261231057600080fd5b8135602082821115612324576123246122bb565b8160051b604051601f19603f83011681018181108682111715612349576123496122bb565b60405292835281830193508481018201928984111561236757600080fd5b948201945b8386101561238c5761237d86612161565b8552948201949382019361236c565b965061239b9050878201612161565b9450505050509250929050565b600080604083850312156123bb57600080fd5b82356123c68161214c565b946020939093013593505050565b6000806000806000608086880312156123ec57600080fd5b85356123f78161214c565b94506020860135935060408601359250606086013567ffffffffffffffff8082111561242257600080fd5b818801915088601f83011261243657600080fd5b81358181111561244557600080fd5b89602082850101111561245757600080fd5b9699959850939650602001949392505050565b6000806040838503121561247d57600080fd5b82356124888161214c565b915060208301356124988161214c565b809150509250929050565b6000806000606084860312156124b857600080fd5b83356124c38161214c565b925060208401356124d38161214c565b929592945050506040919091013590565b6020808252600c908201526b3737ba1032bc32b1baba37b960a11b604082015260600190565b60006020828403121561251c57600080fd5b5051919050565b634e487b7160e01b600052601160045260246000fd5b808202811582820484141761255057612550612523565b92915050565b60008261257357634e487b7160e01b600052601260045260246000fd5b500490565b80516001600160701b038116811461216c57600080fd5b6000806000606084860312156125a457600080fd5b6125ad84612578565b92506125bb60208501612578565b9150604084015163ffffffff811681146122b057600080fd5b6001600160a01b039687168152948616602086015292851660408501529084166060840152909216608082015260a081019190915260c00190565b60005b8381101561262a578181015183820152602001612612565b50506000910152565b6000815180845261264b81602086016020860161260f565b601f01601f19169290920160200192915050565b84815283602082015260018060a01b038316604082015260806060820152600061268c6080830184612633565b9695505050505050565b6020808252600990820152683737ba1037bbb732b960b91b604082015260600190565b6020808252601b908201527f726563697069656e74206e6f7420696e207768697465206c6973740000000000604082015260600190565b634e487b7160e01b600052603260045260246000fd5b60006020828403121561271857600080fd5b815161222e8161213b565b60006001820161273557612735612523565b5060010190565b8181038181111561255057612550612523565b63ffffffff82811682821603908082111561276c5761276c612523565b5092915050565b8082018082111561255057612550612523565b60008060008060008060c0878903121561279f57600080fd5b86356127aa8161214c565b955060208701356127ba8161214c565b945060408701356127ca8161214c565b935060608701356127da8161214c565b925060808701356127ea8161214c565b8092505060a087013590509295509295509295565b6001600160a01b03948516815292841660208401526040830191909152909116606082015260800190565b6000825161283c81846020870161260f565b9190910192915050565b6020808252600190820152604b60f81b60408201526060019056fea2646970667358221220d9d87ae63b9f611d1948f1e749f46c74c6c9d9905d715e6b984e7d5928d0e3af64736f6c63430008110033",
        "linkReferences": {}
    },
    "methodIdentifiers": {
        "_owner()": "b2bdfa7b",
        "addExecutor(address)": "1f5a0bbe",
        "changeOwner(address)": "a6f9dae1",
        "collect(address,address)": "a12ef25e",
        "collect(address[],address)": "42b1689d",
        "executors(address)": "9ac2a011",
        "liquidator()": "4046ebae",
        "pancakeCall(address,uint256,uint256,bytes)": "84800812",
        "recipients(address)": "eb820312",
        "removeExecutor(address)": "24788429",
        "swap(bool,uint256,address,address,address,address,address,address)": "18de0524",
        "withdraw(address,address,uint256)": "d9caed12",
        "withdrawAll(address[],address)": "397a079b",
        "withdrawETH(address,uint256)": "4782f779"
    },
    "id": 16
}